{"abi":[{"type":"constructor","inputs":[],"stateMutability":"nonpayable"},{"type":"receive","stateMutability":"payable"},{"type":"function","name":"ADMIN_ROLE","inputs":[],"outputs":[{"name":"","type":"bytes32","internalType":"bytes32"}],"stateMutability":"view"},{"type":"function","name":"CHAIN_ID","inputs":[],"outputs":[{"name":"","type":"uint256","internalType":"uint256"}],"stateMutability":"view"},{"type":"function","name":"DEFAULT_ADMIN_ROLE","inputs":[],"outputs":[{"name":"","type":"bytes32","internalType":"bytes32"}],"stateMutability":"view"},{"type":"function","name":"DEPLOYER_ROLE","inputs":[],"outputs":[{"name":"","type":"bytes32","internalType":"bytes32"}],"stateMutability":"view"},{"type":"function","name":"MAX_INITIAL_BUY_PERCENTAGE","inputs":[],"outputs":[{"name":"","type":"uint256","internalType":"uint256"}],"stateMutability":"view"},{"type":"function","name":"MIN_LIQUIDITY","inputs":[],"outputs":[{"name":"","type":"uint256","internalType":"uint256"}],"stateMutability":"view"},{"type":"function","name":"PAUSER_ROLE","inputs":[],"outputs":[{"name":"","type":"bytes32","internalType":"bytes32"}],"stateMutability":"view"},{"type":"function","name":"REQUEST_EXPIRY","inputs":[],"outputs":[{"name":"","type":"uint256","internalType":"uint256"}],"stateMutability":"view"},{"type":"function","name":"SIGNER_ROLE","inputs":[],"outputs":[{"name":"","type":"bytes32","internalType":"bytes32"}],"stateMutability":"view"},{"type":"function","name":"blacklistToken","inputs":[{"name":"token","type":"address","internalType":"address"}],"outputs":[],"stateMutability":"nonpayable"},{"type":"function","name":"bondingCurve","inputs":[{"name":"","type":"address","internalType":"address"}],"outputs":[{"name":"virtualBNBReserve","type":"uint256","internalType":"uint256"},{"name":"virtualTokenReserve","type":"uint256","internalType":"uint256"},{"name":"k","type":"uint256","internalType":"uint256"},{"name":"availableTokens","type":"uint256","internalType":"uint256"},{"name":"collectedBNB","type":"uint256","internalType":"uint256"}],"stateMutability":"view"},{"type":"function","name":"buy","inputs":[{"name":"token","type":"address","internalType":"address"},{"name":"minTokenAmount","type":"uint256","internalType":"uint256"},{"name":"deadline","type":"uint256","internalType":"uint256"}],"outputs":[],"stateMutability":"payable"},{"type":"function","name":"calculateBuyAmount","inputs":[{"name":"token","type":"address","internalType":"address"},{"name":"bnbAmount","type":"uint256","internalType":"uint256"}],"outputs":[{"name":"tokenAmount","type":"uint256","internalType":"uint256"}],"stateMutability":"view"},{"type":"function","name":"calculateBuyAmountWithFee","inputs":[{"name":"token","type":"address","internalType":"address"},{"name":"bnbAmount","type":"uint256","internalType":"uint256"}],"outputs":[{"name":"tokenOut","type":"uint256","internalType":"uint256"},{"name":"netBNB","type":"uint256","internalType":"uint256"},{"name":"feeBNB","type":"uint256","internalType":"uint256"}],"stateMutability":"view"},{"type":"function","name":"calculateInitialBuyBNB","inputs":[{"name":"totalSupply","type":"uint256","internalType":"uint256"},{"name":"virtualBNBReserve","type":"uint256","internalType":"uint256"},{"name":"virtualTokenReserve","type":"uint256","internalType":"uint256"},{"name":"percentageBP","type":"uint256","internalType":"uint256"}],"outputs":[{"name":"totalPayment","type":"uint256","internalType":"uint256"},{"name":"preBuyFee","type":"uint256","internalType":"uint256"}],"stateMutability":"view"},{"type":"function","name":"calculateSellReturn","inputs":[{"name":"token","type":"address","internalType":"address"},{"name":"tokenAmount","type":"uint256","internalType":"uint256"}],"outputs":[{"name":"","type":"uint256","internalType":"uint256"}],"stateMutability":"view"},{"type":"function","name":"calculateSellReturnWithFee","inputs":[{"name":"token","type":"address","internalType":"address"},{"name":"tokenAmount","type":"uint256","internalType":"uint256"}],"outputs":[{"name":"netBNB","type":"uint256","internalType":"uint256"},{"name":"feeBNB","type":"uint256","internalType":"uint256"}],"stateMutability":"view"},{"type":"function","name":"createToken","inputs":[{"name":"data","type":"bytes","internalType":"bytes"},{"name":"signature","type":"bytes","internalType":"bytes"}],"outputs":[{"name":"tokenAddress","type":"address","internalType":"address"}],"stateMutability":"payable"},{"type":"function","name":"creationFee","inputs":[],"outputs":[{"name":"","type":"uint256","internalType":"uint256"}],"stateMutability":"view"},{"type":"function","name":"emergencyWithdraw","inputs":[{"name":"token","type":"address","internalType":"address"},{"name":"amount","type":"uint256","internalType":"uint256"}],"outputs":[],"stateMutability":"nonpayable"},{"type":"function","name":"factory","inputs":[],"outputs":[{"name":"","type":"address","internalType":"contract IMEMEFactory"}],"stateMutability":"view"},{"type":"function","name":"getBondingCurve","inputs":[{"name":"token","type":"address","internalType":"address"}],"outputs":[{"name":"","type":"tuple","internalType":"struct IBondingCurveParams.BondingCurveParams","components":[{"name":"virtualBNBReserve","type":"uint256","internalType":"uint256"},{"name":"virtualTokenReserve","type":"uint256","internalType":"uint256"},{"name":"k","type":"uint256","internalType":"uint256"},{"name":"availableTokens","type":"uint256","internalType":"uint256"},{"name":"collectedBNB","type":"uint256","internalType":"uint256"}]}],"stateMutability":"view"},{"type":"function","name":"getRoleAdmin","inputs":[{"name":"role","type":"bytes32","internalType":"bytes32"}],"outputs":[{"name":"","type":"bytes32","internalType":"bytes32"}],"stateMutability":"view"},{"type":"function","name":"getTokenInfo","inputs":[{"name":"token","type":"address","internalType":"address"}],"outputs":[{"name":"","type":"tuple","internalType":"struct IMEMECore.TokenInfo","components":[{"name":"creator","type":"address","internalType":"address"},{"name":"createdAt","type":"uint256","internalType":"uint256"},{"name":"launchTime","type":"uint256","internalType":"uint256"},{"name":"status","type":"uint8","internalType":"enum IMEMECore.TokenStatus"},{"name":"liquidityPool","type":"address","internalType":"address"}]}],"stateMutability":"view"},{"type":"function","name":"graduateFeeReceiver","inputs":[],"outputs":[{"name":"","type":"address","internalType":"address"}],"stateMutability":"view"},{"type":"function","name":"graduateToken","inputs":[{"name":"token","type":"address","internalType":"address"}],"outputs":[],"stateMutability":"nonpayable"},{"type":"function","name":"graduationCreatorFeeRate","inputs":[],"outputs":[{"name":"","type":"uint256","internalType":"uint256"}],"stateMutability":"view"},{"type":"function","name":"graduationPlatformFeeRate","inputs":[],"outputs":[{"name":"","type":"uint256","internalType":"uint256"}],"stateMutability":"view"},{"type":"function","name":"grantRole","inputs":[{"name":"role","type":"bytes32","internalType":"bytes32"},{"name":"account","type":"address","internalType":"address"}],"outputs":[],"stateMutability":"nonpayable"},{"type":"function","name":"hasRole","inputs":[{"name":"role","type":"bytes32","internalType":"bytes32"},{"name":"account","type":"address","internalType":"address"}],"outputs":[{"name":"","type":"bool","internalType":"bool"}],"stateMutability":"view"},{"type":"function","name":"helper","inputs":[],"outputs":[{"name":"","type":"address","internalType":"contract IMEMEHelper"}],"stateMutability":"view"},{"type":"function","name":"initialize","inputs":[{"name":"_factory","type":"address","internalType":"address"},{"name":"_helper","type":"address","internalType":"address"},{"name":"_signer","type":"address","internalType":"address"},{"name":"_platformFeeReceiver","type":"address","internalType":"address"},{"name":"_marginReceiver","type":"address","internalType":"address"},{"name":"_graduateFeeReceiver","type":"address","internalType":"address"},{"name":"_admin","type":"address","internalType":"address"}],"outputs":[],"stateMutability":"nonpayable"},{"type":"function","name":"marginReceiver","inputs":[],"outputs":[{"name":"","type":"address","internalType":"address"}],"stateMutability":"view"},{"type":"function","name":"minLockTime","inputs":[],"outputs":[{"name":"","type":"uint256","internalType":"uint256"}],"stateMutability":"view"},{"type":"function","name":"pause","inputs":[],"outputs":[],"stateMutability":"nonpayable"},{"type":"function","name":"pauseToken","inputs":[{"name":"token","type":"address","internalType":"address"}],"outputs":[],"stateMutability":"nonpayable"},{"type":"function","name":"paused","inputs":[],"outputs":[{"name":"","type":"bool","internalType":"bool"}],"stateMutability":"view"},{"type":"function","name":"platformFeeReceiver","inputs":[],"outputs":[{"name":"","type":"address","internalType":"address"}],"stateMutability":"view"},{"type":"function","name":"preBuyFeeRate","inputs":[],"outputs":[{"name":"","type":"uint256","internalType":"uint256"}],"stateMutability":"view"},{"type":"function","name":"proxiableUUID","inputs":[],"outputs":[{"name":"","type":"bytes32","internalType":"bytes32"}],"stateMutability":"view"},{"type":"function","name":"removeFromBlacklist","inputs":[{"name":"token","type":"address","internalType":"address"}],"outputs":[],"stateMutability":"nonpayable"},{"type":"function","name":"renounceRole","inputs":[{"name":"role","type":"bytes32","internalType":"bytes32"},{"name":"account","type":"address","internalType":"address"}],"outputs":[],"stateMutability":"nonpayable"},{"type":"function","name":"revokeRole","inputs":[{"name":"role","type":"bytes32","internalType":"bytes32"},{"name":"account","type":"address","internalType":"address"}],"outputs":[],"stateMutability":"nonpayable"},{"type":"function","name":"sell","inputs":[{"name":"token","type":"address","internalType":"address"},{"name":"tokenAmount","type":"uint256","internalType":"uint256"},{"name":"minBNBAmount","type":"uint256","internalType":"uint256"},{"name":"deadline","type":"uint256","internalType":"uint256"}],"outputs":[],"stateMutability":"nonpayable"},{"type":"function","name":"setCreationFee","inputs":[{"name":"_fee","type":"uint256","internalType":"uint256"}],"outputs":[],"stateMutability":"nonpayable"},{"type":"function","name":"setFactory","inputs":[{"name":"_factory","type":"address","internalType":"address"}],"outputs":[],"stateMutability":"nonpayable"},{"type":"function","name":"setGraduateFeeReceiver","inputs":[{"name":"_receiver","type":"address","internalType":"address"}],"outputs":[],"stateMutability":"nonpayable"},{"type":"function","name":"setGraduationFeeRates","inputs":[{"name":"_platformRate","type":"uint256","internalType":"uint256"},{"name":"_creatorRate","type":"uint256","internalType":"uint256"}],"outputs":[],"stateMutability":"nonpayable"},{"type":"function","name":"setHelper","inputs":[{"name":"_helper","type":"address","internalType":"address"}],"outputs":[],"stateMutability":"nonpayable"},{"type":"function","name":"setMarginReceiver","inputs":[{"name":"_marginReceiver","type":"address","internalType":"address"}],"outputs":[],"stateMutability":"nonpayable"},{"type":"function","name":"setMinLockTime","inputs":[{"name":"_time","type":"uint256","internalType":"uint256"}],"outputs":[],"stateMutability":"nonpayable"},{"type":"function","name":"setPlatformFeeReceiver","inputs":[{"name":"_receiver","type":"address","internalType":"address"}],"outputs":[],"stateMutability":"nonpayable"},{"type":"function","name":"setPreBuyFeeRate","inputs":[{"name":"_rate","type":"uint256","internalType":"uint256"}],"outputs":[],"stateMutability":"nonpayable"},{"type":"function","name":"setTradingFeeRate","inputs":[{"name":"_rate","type":"uint256","internalType":"uint256"}],"outputs":[],"stateMutability":"nonpayable"},{"type":"function","name":"setVesting","inputs":[{"name":"_vesting","type":"address","internalType":"address"}],"outputs":[],"stateMutability":"nonpayable"},{"type":"function","name":"supportsInterface","inputs":[{"name":"interfaceId","type":"bytes4","internalType":"bytes4"}],"outputs":[{"name":"","type":"bool","internalType":"bool"}],"stateMutability":"view"},{"type":"function","name":"tokenInfo","inputs":[{"name":"","type":"address","internalType":"address"}],"outputs":[{"name":"creator","type":"address","internalType":"address"},{"name":"createdAt","type":"uint256","internalType":"uint256"},{"name":"launchTime","type":"uint256","internalType":"uint256"},{"name":"status","type":"uint8","internalType":"enum IMEMECore.TokenStatus"},{"name":"liquidityPool","type":"address","internalType":"address"}],"stateMutability":"view"},{"type":"function","name":"tradingFeeRate","inputs":[],"outputs":[{"name":"","type":"uint256","internalType":"uint256"}],"stateMutability":"view"},{"type":"function","name":"unpause","inputs":[],"outputs":[],"stateMutability":"nonpayable"},{"type":"function","name":"unpauseToken","inputs":[{"name":"token","type":"address","internalType":"address"}],"outputs":[],"stateMutability":"nonpayable"},{"type":"function","name":"upgradeTo","inputs":[{"name":"newImplementation","type":"address","internalType":"address"}],"outputs":[],"stateMutability":"nonpayable"},{"type":"function","name":"upgradeToAndCall","inputs":[{"name":"newImplementation","type":"address","internalType":"address"},{"name":"data","type":"bytes","internalType":"bytes"}],"outputs":[],"stateMutability":"payable"},{"type":"function","name":"usedRequestIds","inputs":[{"name":"","type":"bytes32","internalType":"bytes32"}],"outputs":[{"name":"","type":"bool","internalType":"bool"}],"stateMutability":"view"},{"type":"function","name":"vesting","inputs":[],"outputs":[{"name":"","type":"address","internalType":"contract IMEMEVesting"}],"stateMutability":"view"},{"type":"event","name":"AdminChanged","inputs":[{"name":"previousAdmin","type":"address","indexed":false,"internalType":"address"},{"name":"newAdmin","type":"address","indexed":false,"internalType":"address"}],"anonymous":false},{"type":"event","name":"BeaconUpgraded","inputs":[{"name":"beacon","type":"address","indexed":true,"internalType":"address"}],"anonymous":false},{"type":"event","name":"CreationFeeChanged","inputs":[{"name":"creationFee","type":"uint256","indexed":false,"internalType":"uint256"}],"anonymous":false},{"type":"event","name":"CreatorFeeRedirected","inputs":[{"name":"to","type":"address","indexed":true,"internalType":"address"},{"name":"platformFeeReceiver","type":"address","indexed":true,"internalType":"address"},{"name":"amount","type":"uint256","indexed":false,"internalType":"uint256"}],"anonymous":false},{"type":"event","name":"FactoryChanged","inputs":[{"name":"oldFactory","type":"address","indexed":true,"internalType":"address"},{"name":"newFactory","type":"address","indexed":true,"internalType":"address"}],"anonymous":false},{"type":"event","name":"GraduateFeeReceiverChanged","inputs":[{"name":"oldReceiver","type":"address","indexed":true,"internalType":"address"},{"name":"newReceiver","type":"address","indexed":true,"internalType":"address"}],"anonymous":false},{"type":"event","name":"GraduationFeeRatesChanged","inputs":[{"name":"platformRate","type":"uint256","indexed":false,"internalType":"uint256"},{"name":"creatorRate","type":"uint256","indexed":false,"internalType":"uint256"}],"anonymous":false},{"type":"event","name":"HelperChanged","inputs":[{"name":"oldHelper","type":"address","indexed":true,"internalType":"address"},{"name":"newHelper","type":"address","indexed":true,"internalType":"address"}],"anonymous":false},{"type":"event","name":"Initialized","inputs":[{"name":"version","type":"uint8","indexed":false,"internalType":"uint8"}],"anonymous":false},{"type":"event","name":"MarginDeposited","inputs":[{"name":"token","type":"address","indexed":true,"internalType":"address"},{"name":"creator","type":"address","indexed":true,"internalType":"address"},{"name":"marginAmount","type":"uint256","indexed":false,"internalType":"uint256"},{"name":"lockTime","type":"uint256","indexed":false,"internalType":"uint256"}],"anonymous":false},{"type":"event","name":"MarginReceiverChanged","inputs":[{"name":"oldMarginReceiver","type":"address","indexed":true,"internalType":"address"},{"name":"newMarginReceiver","type":"address","indexed":true,"internalType":"address"}],"anonymous":false},{"type":"event","name":"MetaNodeTokensBurned","inputs":[{"name":"token","type":"address","indexed":true,"internalType":"address"},{"name":"amount","type":"uint256","indexed":false,"internalType":"uint256"}],"anonymous":false},{"type":"event","name":"MinLockTimeChanged","inputs":[{"name":"minLockTime","type":"uint256","indexed":false,"internalType":"uint256"}],"anonymous":false},{"type":"event","name":"Paused","inputs":[{"name":"account","type":"address","indexed":false,"internalType":"address"}],"anonymous":false},{"type":"event","name":"PlatformFeeReceiverChanged","inputs":[{"name":"oldReceiver","type":"address","indexed":true,"internalType":"address"},{"name":"newReceiver","type":"address","indexed":true,"internalType":"address"}],"anonymous":false},{"type":"event","name":"PreBuyFeeRateChanged","inputs":[{"name":"preBuyFeeRate","type":"uint256","indexed":false,"internalType":"uint256"}],"anonymous":false},{"type":"event","name":"RoleAdminChanged","inputs":[{"name":"role","type":"bytes32","indexed":true,"internalType":"bytes32"},{"name":"previousAdminRole","type":"bytes32","indexed":true,"internalType":"bytes32"},{"name":"newAdminRole","type":"bytes32","indexed":true,"internalType":"bytes32"}],"anonymous":false},{"type":"event","name":"RoleGranted","inputs":[{"name":"role","type":"bytes32","indexed":true,"internalType":"bytes32"},{"name":"account","type":"address","indexed":true,"internalType":"address"},{"name":"sender","type":"address","indexed":true,"internalType":"address"}],"anonymous":false},{"type":"event","name":"RoleRevoked","inputs":[{"name":"role","type":"bytes32","indexed":true,"internalType":"bytes32"},{"name":"account","type":"address","indexed":true,"internalType":"address"},{"name":"sender","type":"address","indexed":true,"internalType":"address"}],"anonymous":false},{"type":"event","name":"TokenBlacklisted","inputs":[{"name":"token","type":"address","indexed":true,"internalType":"address"}],"anonymous":false},{"type":"event","name":"TokenBought","inputs":[{"name":"token","type":"address","indexed":true,"internalType":"address"},{"name":"buyer","type":"address","indexed":true,"internalType":"address"},{"name":"bnbAmount","type":"uint256","indexed":false,"internalType":"uint256"},{"name":"tokenAmount","type":"uint256","indexed":false,"internalType":"uint256"},{"name":"tradingFee","type":"uint256","indexed":false,"internalType":"uint256"},{"name":"virtualBNBReserve","type":"uint256","indexed":false,"internalType":"uint256"},{"name":"virtualTokenReserve","type":"uint256","indexed":false,"internalType":"uint256"},{"name":"availableTokens","type":"uint256","indexed":false,"internalType":"uint256"},{"name":"collectedBNB","type":"uint256","indexed":false,"internalType":"uint256"}],"anonymous":false},{"type":"event","name":"TokenCreated","inputs":[{"name":"token","type":"address","indexed":true,"internalType":"address"},{"name":"creator","type":"address","indexed":true,"internalType":"address"},{"name":"name","type":"string","indexed":false,"internalType":"string"},{"name":"symbol","type":"string","indexed":false,"internalType":"string"},{"name":"totalSupply","type":"uint256","indexed":false,"internalType":"uint256"},{"name":"requestId","type":"bytes32","indexed":false,"internalType":"bytes32"}],"anonymous":false},{"type":"event","name":"TokenCreatedWithInitialBuy","inputs":[{"name":"token","type":"address","indexed":true,"internalType":"address"},{"name":"creator","type":"address","indexed":true,"internalType":"address"},{"name":"initialTokensPurchased","type":"uint256","indexed":false,"internalType":"uint256"},{"name":"initialBNBSpent","type":"uint256","indexed":false,"internalType":"uint256"},{"name":"actualPercentage","type":"uint256","indexed":false,"internalType":"uint256"}],"anonymous":false},{"type":"event","name":"TokenGraduated","inputs":[{"name":"token","type":"address","indexed":true,"internalType":"address"},{"name":"liquidityBNB","type":"uint256","indexed":false,"internalType":"uint256"},{"name":"liquidityTokens","type":"uint256","indexed":false,"internalType":"uint256"},{"name":"liquidityResult","type":"uint256","indexed":false,"internalType":"uint256"}],"anonymous":false},{"type":"event","name":"TokenPaused","inputs":[{"name":"token","type":"address","indexed":true,"internalType":"address"}],"anonymous":false},{"type":"event","name":"TokenRemovedFromBlacklist","inputs":[{"name":"token","type":"address","indexed":true,"internalType":"address"}],"anonymous":false},{"type":"event","name":"TokenSold","inputs":[{"name":"token","type":"address","indexed":true,"internalType":"address"},{"name":"seller","type":"address","indexed":true,"internalType":"address"},{"name":"tokenAmount","type":"uint256","indexed":false,"internalType":"uint256"},{"name":"bnbAmount","type":"uint256","indexed":false,"internalType":"uint256"},{"name":"tradingFee","type":"uint256","indexed":false,"internalType":"uint256"},{"name":"virtualBNBReserve","type":"uint256","indexed":false,"internalType":"uint256"},{"name":"virtualTokenReserve","type":"uint256","indexed":false,"internalType":"uint256"},{"name":"availableTokens","type":"uint256","indexed":false,"internalType":"uint256"},{"name":"collectedBNB","type":"uint256","indexed":false,"internalType":"uint256"}],"anonymous":false},{"type":"event","name":"TokenStatusChanged","inputs":[{"name":"token","type":"address","indexed":true,"internalType":"address"},{"name":"oldStatus","type":"uint8","indexed":false,"internalType":"enum IMEMECore.TokenStatus"},{"name":"newStatus","type":"uint8","indexed":false,"internalType":"enum IMEMECore.TokenStatus"}],"anonymous":false},{"type":"event","name":"TokenUnpaused","inputs":[{"name":"token","type":"address","indexed":true,"internalType":"address"}],"anonymous":false},{"type":"event","name":"TradingFeeRateChanged","inputs":[{"name":"tradingFeeRate","type":"uint256","indexed":false,"internalType":"uint256"}],"anonymous":false},{"type":"event","name":"Unpaused","inputs":[{"name":"account","type":"address","indexed":false,"internalType":"address"}],"anonymous":false},{"type":"event","name":"Upgraded","inputs":[{"name":"implementation","type":"address","indexed":true,"internalType":"address"}],"anonymous":false},{"type":"event","name":"VestingChanged","inputs":[{"name":"oldVesting","type":"address","indexed":true,"internalType":"address"},{"name":"newVesting","type":"address","indexed":true,"internalType":"address"}],"anonymous":false},{"type":"event","name":"VestingCreated","inputs":[{"name":"token","type":"address","indexed":true,"internalType":"address"},{"name":"beneficiary","type":"address","indexed":true,"internalType":"address"},{"name":"totalVestedAmount","type":"uint256","indexed":false,"internalType":"uint256"},{"name":"scheduleCount","type":"uint256","indexed":false,"internalType":"uint256"}],"anonymous":false},{"type":"error","name":"InsufficientBalance","inputs":[]},{"type":"error","name":"InsufficientFee","inputs":[]},{"type":"error","name":"InsufficientMargin","inputs":[]},{"type":"error","name":"InvalidAmountParameters","inputs":[]},{"type":"error","name":"InvalidBlackListedStatus","inputs":[]},{"type":"error","name":"InvalidCreatorParameters","inputs":[]},{"type":"error","name":"InvalidDurationParameters","inputs":[]},{"type":"error","name":"InvalidInitialBuyPercentage","inputs":[]},{"type":"error","name":"InvalidNativeAmount","inputs":[]},{"type":"error","name":"InvalidPair","inputs":[]},{"type":"error","name":"InvalidParameters","inputs":[]},{"type":"error","name":"InvalidPausedStatus","inputs":[]},{"type":"error","name":"InvalidPercentageBP","inputs":[]},{"type":"error","name":"InvalidSaleParameters","inputs":[]},{"type":"error","name":"InvalidSigner","inputs":[]},{"type":"error","name":"InvalidStatus","inputs":[]},{"type":"error","name":"InvalidVestingParameters","inputs":[]},{"type":"error","name":"MarginReceiverNotSet","inputs":[]},{"type":"error","name":"RequestAlreadyProcessed","inputs":[]},{"type":"error","name":"RequestExpired","inputs":[]},{"type":"error","name":"SlippageExceeded","inputs":[]},{"type":"error","name":"TokenNotLaunchedYet","inputs":[]},{"type":"error","name":"TokenNotTrading","inputs":[]},{"type":"error","name":"TransactionExpired","inputs":[]},{"type":"error","name":"Unauthorized","inputs":[]},{"type":"error","name":"ZeroAddress","inputs":[]}],"bytecode":{"object":"0x60a080604052346100da57306080525f549060ff8260081c16610088575060ff8082160361004e575b6040516155bf90816100df8239608051818181611fc70152818161330701526137c00152f35b60ff90811916175f557f7f26b83ff96e1f2b6a682f133852f6798a09c465da95921460cefb3847402498602060405160ff8152a15f610028565b62461bcd60e51b815260206004820152602760248201527f496e697469616c697a61626c653a20636f6e747261637420697320696e697469604482015266616c697a696e6760c81b6064820152608490fd5b5f80fdfe6101a080604052600436101561001d575b50361561001b575f80fd5b005b5f610100525f3560e01c90816301ffc9a714614521575080630c30571c146144ca5780631091f67c14614474578063159f4b15146143ef57806318b07423146143d15780631c8b271a1461431f5780631f69565f1461425457806321b77d631461423257806322f195b514614216578063248a9ca3146141e35780632d5d1467146141605780632d656ad7146141375780632f2ff15d14614091578063337eef271461405e578063349857381461402e5780633587647614613aa757806336568abe14613a155780633659cfe6146137a25780633b3bff0f146136ed5780633ec3908c146136255780633f4ba83a1461359257806344c63eec146135695780634f1ef286146132be578063519ebb101461207757806352d1902d14611fb2578063537df3b614611ed45780635bb4780814611e545780635c975abb14611e2f57806363b0e66a14611e03578063644660a214611d835780636f6ff3bc14611d0b578063715ddce414611cea57806375b238fc14611cad5780637c41ad2c14611bd157806382e5d1bc14611b7f57806383b4e74d14611b6057806383db2a2114611ab35780638456cb5914611a5257806385e1f4d014611a315780638e3388dc1461180157806391d14854146117b257806392cdbac51461144557806395ccea67146113d257806397f548f714610eed578063986ccc7f14610e6d578063a1ebf35d14610e30578063a217fddf14610e10578063a59ac6dd146108f6578063a60ff766146108d5578063ae9af2d0146108a9578063b7d8622514610832578063c108a26e14610811578063c45a0155146107e5578063d0c58e481461077a578063d547741f14610730578063dce0b4e41461070f578063e01df1a8146106ee578063e1254559146105e9578063e340977a14610554578063e63ab1e914610517578063ecd00261146104ed578063ee28282c146104c1578063f2f2c5c4146103785763f5dab711146102ee575f610010565b34610371576020366003190112610371576001600160a01b0361030f614574565b16610100515261016b60205260a060406101005120600180831b038154169060018101549060036002820154910154916040519384526020840152604083015261035f6060830160ff83166145a0565b60081c5f196001841b01166080820152f35b6101005180fd5b3461037157604036600319011261037157610391614574565b610100515060018060a01b0316610100515261016c60205260406101005120604051906103bd826145ad565b80548252600181015460208301526002810154604083015260046003820154916060840192835201546080830152602061044b60c460018060a01b03610166541694604051958693849263108e1e6760e11b84526024356004850152602484019060808091805184526020810151602085015260408101516040850152606081015160608501520151910152565b5afa80156104b357610100519061047c575b905160209250808211610474575b50604051908152f35b90508261046b565b506020823d6020116104ab575b81610496602093836145e3565b810103126104a7576020915161045d565b5f80fd5b3d9150610489565b6040513d61010051823e3d90fd5b34610371576101005136600319011261037157610169546040516001600160a01b039091168152602090f35b3461037157610100513660031901126103715760206040515f51602061554a5f395f51905f528152f35b3461037157610100513660031901126103715760206040517f65d7a28e3265b37a6474929f336521b332c1681b933f6cb9f3376673440d862a8152f35b346103715760203660031901126103715761056d614574565b6105756148fb565b6001600160a01b031680156105d45761016880546001600160a01b031981168317909155610100516001600160a01b03909116907f6d2c9f65f1605398e91b42313f2649be0d987d8ba0ed34247cc1e1adf98691e69080a36101005180f35b63d92e233d60e01b6101005152600461010051fd5b3461037157602036600319011261037157610602614574565b61060a6148fb565b61010080516001600160a01b039283169081905261016b60205290516040902054909116156106d95780610100515261016b60205260ff60036040610100512001541681610100515261016b60205261066d6005600360406101005120016148c1565b61067a60405180926145a0565b5f51602061552a5f395f51905f526040826005602086950152a27f75519c51f39873ec0e27dd3bbc09549e4865a113f505393fb9eab5898f6418b36101005161010051a26101005180f35b634e487b7160e01b5f52602160045260245ffd5b6309422c6560e41b6101005152600461010051fd5b34610371576101005136600319011261037157602061016154604051908152f35b34610371576101005136600319011261037157602061015f54604051908152f35b346103715760403660031901126103715761077360043561074f61458a565b9061076e610769825f5260c9602052600160405f20015490565b614a55565b614b5e565b6101005180f35b34610371576020366003190112610371576001600160a01b0361079b614574565b16610100515261016c60205260a060406101005120805490600181015490600281015460046003830154920154926040519485526020850152604084015260608301526080820152f35b34610371576101005136600319011261037157610165546040516001600160a01b039091168152602090f35b34610371576101005136600319011261037157602061016054604051908152f35b346103715760203660031901126103715760043561084e6148fb565b67016345785d8a00008111610894576020817fb472bc245cc56131a253d64c0fd5cf333aaacde67bf4571c077aa32150256e219261015f55604051908152a16101005180f35b63661067b560e01b6101005152600461010051fd5b3461037157610100513660031901126103715761016e546040516001600160a01b039091168152602090f35b34610371576101005136600319011261037157602061016454604051908152f35b60603660031901126103715761090a614574565b604435610915614c33565b61091d614c8b565b61010080516001600160a01b038481169182905261016b6020529151604090205490939116156106d95761095090614f04565b804211908115610df8575b50610de3573415610dce57610161549061271061097883346146e6565b049161098483346148b4565b9260018060a01b0361016654169183610100515261016c60205260406101005120926109c76040519463108e1e6760e11b86528760048701526024860190614682565b60208460c481845afa9384156104b3576101005194610d9a575b508385610100515261016c602052600360406101005120015410610c6d575b50506024358210610c585782610100515261016c60205260406101005120610a29858254614717565b905582610100515261016c60205260016040610100512001610a4c8382546148b4565b905582610100515261016c60205260036040610100512001610a6f8382546148b4565b905582610100515261016c60205260046040610100512001610a92858254614717565b905561016854610aac9082906001600160a01b0316614d69565b610ab7823385614ccf565b82610100515261016c602052678ac7230489e80000600360406101005120015410610ba4575b7fbde95e2b88621e549a1346c8b10be80be9445e6da8de8f40d6a8858f556ac5549183610100515261016c602052610b94604061010051205485610100515261016c602052600160406101005120015486610100515261016c60205260036040610100512001549087610100515261016c602052600460406101005120015492604051968796339b8893909796959260c0959260e08601998652602086015260408501526060840152608083015260a08201520152565b0390a3600161012d556101005180f35b82610100515261016b60205260ff60036040610100512001541683610100515261016b602052610bde6002600360406101005120016148c1565b610beb60405180926145a0565b5f51602061552a5f395f51905f526040826002602088950152a2823b15610371576040516311c67ed560e31b815260016004820152610100518160248183885af180156104b357610c3d575b50610add565b61010051610c4a916145e3565b610100516103715784610c37565b638199f5f360e01b6101005152600461010051fd5b925093505081610100515261016c60205260036040610100512001549082610100515261016c6020526020610cc660c46040610100512060405194859384926311f0ddf160e31b84528860048501526024840190614682565b5afa9081156104b3576101005191610d68575b508093610ce681836146e6565b9061271003906127108211610d4e57610d0991610d02916146f9565b8092614717565b803411610d17575b80610a00565b610d2190346148b4565b610100518115610d45575b61010051918291829182913390f1156104b35784610d11565b506108fc610d2c565b634e487b7160e01b61010051526011600452602461010051fd5b90506020813d602011610d92575b81610d83602093836145e3565b810103126104a7575184610cd9565b3d9150610d76565b9093506020813d602011610dc6575b81610db6602093836145e3565b810103126104a7575192866109e1565b3d9150610da9565b63113a2f4b60e21b6101005152600461010051fd5b6338e5e54b60e21b6101005152600461010051fd5b905062015180420190814211610d4e5710158261095b565b346103715761010051366003190112610371576020604051610100518152f35b3461037157610100513660031901126103715760206040517fe2f4eaae4a9751e85a3e4a7b9587827a877f29914755229b07a7b2da98285f708152f35b3461037157602036600319011261037157610e86614574565b610e8e6148fb565b6001600160a01b031680156105d45761016680546001600160a01b031981168317909155610100516001600160a01b03909116907f8588b9ba00b8f1359cf0c0bd0918f149ee41e8600831443d4916c7733f2f9b519080a36101005180f35b3461037157602036600319011261037157610f06614574565b5f51602061554a5f395f51905f52610100515260c96020526040610100512060018060a01b0333165f5260205260ff60405f205416156113135761010080516001600160a01b039283169081905261016b60205290516040902054909116156106d957610f71614c33565b80610100515261016b602052610fd76040610100512082610100515261016c6020526040610100512090610fe560036004840154930154926101625492612710610ff481610fec81610fc389886146e6565b04968796610fe084610163549d8e846146e6565b04998a926148b4565b6148b4565b97896146e6565b0497876146e6565b0461100381610fe089896148b4565b95883b15610371576040516311c67ed560e31b8152610100805160048301525181602481838e5af180156104b3576112f8575b506040516370a0823160e01b81523060048201526020816024818d5afa9081156104b35761010051916112c6575b5010611282576101665460405163095ea7b360e01b81526001600160a01b039091166004820152602481018790529260208480604481010381610100518d5af19384156104b3578694611255575b50602060018060a01b03610166541660648b6040519788938492631e11b86760e31b845260048401528160248401528c60448401525af19384156104b3576101005194611221575b5088610100515261016b60205260ff6003604061010051200154169489610100515261016b60205261113560038060406101005120016148c1565b61114260405180976145a0565b7f74ddd6b35eb9921605ec2cb7da4af12cd0020d2117b708ade1d30523471b74419861119a6111b1938c5f51602061552a5f395f51905f5260408b600360206111d69e0152a261016e546001600160a01b0316614d69565b80611203575b5083546001600160a01b0316614d69565b806111e6575b5050604051938493846040919493926060820195825260208201520152565b0390a2600161012d556101005180f35b90546111fc91906001600160a01b031688614ccf565b86806111b7565b61016e5461121b91906001600160a01b03168c614ccf565b8a6111a0565b9093506020813d60201161124d575b8161123d602093836145e3565b810103126104a7575192896110fa565b3d9150611230565b6112769060203d60201161127b575b61126e81836145e3565b8101906148e3565b6110b2565b503d611264565b606460405162461bcd60e51b815260206004820152602060248201527f496e73756666696369656e7420746f6b656e20666f72206c69717569646974796044820152fd5b90506020813d6020116112f0575b816112e1602093836145e3565b810103126104a757518a611064565b3d91506112d4565b61010051611305916145e3565b610100516103715789611036565b6113ce60206113ae60116113263361526d565b60378461133f5f51602061554a5f395f51905f52615353565b60405196879476020b1b1b2b9b9a1b7b73a3937b61d1030b1b1b7bab73a1604d1b828701528051918291018587015e8401907001034b99036b4b9b9b4b733903937b6329607d1b84830152805192839101604883015e010161010051838201520301601f1981018352826145e3565b60405162461bcd60e51b8152602060048201529182916024830190614890565b0390fd5b34610371576040366003190112610371576113eb614574565b602435906113f76148fb565b6001600160a01b031680611434575061010051811561142b575b61010051918291829182913390f1156104b3576101005180f35b506108fc611411565b90611440913390614ccf565b610773565b346103715760803660031901126103715761145e614574565b6024359061146a614c33565b611472614c8b565b61010080516001600160a01b038381169182905261016b6020529151604090205490929116156106d9576114a590614f04565b6064354211610de357811561179d576040516370a0823160e01b8152336004820152602081602481855afa80156104b35783916101005191611768575b50106117215760018060a01b03610166541681610100515261016c602052602061153060c4604061010051206040519485938492634f4fd49360e01b84528960048501526024840190614682565b5afa9081156104b3576101005191611736575b5061271061155461016154836146e6565b0461155f81836148b4565b6044358110610c585783610100515261016c60205260046040610100512001548311611721577f2067389fa94610326e668e4344cbceda1527971351d95bc67cbf3e77491e493b926115e16040516323b872dd60e01b6020820152336024820152306044820152876064820152606481526115db6084826145e3565b8661517a565b84610100515261016c602052604061010051206115ff8282546148b4565b905584610100515261016c60205260016040610100512001611622878254614717565b905584610100515261016c60205260036040610100512001611645878254614717565b905584610100515261016c602052611668600460406101005120019182546148b4565b9055610168546116829083906001600160a01b0316614d69565b61168c8133614d69565b83610100515261016c602052610b94604061010051205485610100515261016c602052600160406101005120015486610100515261016c60205260036040610100512001549087610100515261016c602052600460406101005120015492604051968796339b8893909796959260c0959260e08601998652602086015260408501526060840152608083015260a08201520152565b631e9acf1760e31b6101005152600461010051fd5b90506020813d602011611760575b81611751602093836145e3565b810103126104a7575183611543565b3d9150611744565b9150506020813d602011611795575b81611784602093836145e3565b810103126104a757829051846114e2565b3d9150611777565b630e52390960e41b6101005152600461010051fd5b34610371576040366003190112610371576117cb61458a565b600435610100515260c9602052604061010051209060018060a01b03165f52602052602060ff60405f2054166040519015158152f35b346103715760403660031901126103715761181a614574565b61010080516001600160a01b039290921690915261016c60205251604090819020905190611847826145ad565b8054825260018101546020830152600281015460408301526004600382015491606084019283520154608083015260018060a01b0361016654166101615490604051916367ab183360e11b835260243560048401526118d1602484018660808091805184526020810151602085015260408101516040850152606081015160608501520151910152565b8060c484015260608360e481855afa9485156104b3576101005195869485916119ed575b509395809551809111611921575b604080518781526020810189905290810186905280606081015b0390f35b604080516311f0ddf160e31b8152600481018390528351602482015260208481015160448301529184015160648201526060840151608482015260809093015160a4840152919650945090925090849060c49082905afa9283156104b35761010051936119b9575b5061199481846146e6565b9061271003906127108211610d4e5761191d916119b0916146f9565b90848080611903565b9092506020813d6020116119e5575b816119d5602093836145e3565b810103126104a757519183611989565b3d91506119c8565b96505092506060853d606011611a29575b81611a0b606093836145e3565b810103126103715784519260406020870151960151939593876118f5565b3d91506119fe565b34610371576101005136600319011261037157602061016a54604051908152f35b34610371576101005136600319011261037157611a6d6149de565b611a75614c8b565b600160ff1960fb54161760fb557f62e78cea01bee320cd4e420270b5ea74000d11b0c9f74754ebdbfc544b05a2586020604051338152a16101005180f35b3461037157602036600319011261037157611acc614574565b611ad46146b0565b5060018060a01b0316610100515261016c60205260a060406101005120600460405191611b00836145ad565b8054835260018101546020840152600281015460408401526003810154606084015201546080820152611b5e604051809260808091805184526020810151602085015260408101516040850152606081015160608501520151910152565bf35b3461037157610100513660031901126103715760206040516127068152f35b34610371576020366003190112610371577f7d58ab0c57e3d536da1a9554e89edee89e460c56fbd36adc5ff8582e4d078bd16020600435611bbe6148fb565b8061016455604051908152a16101005180f35b3461037157602036600319011261037157611bea614574565b611bf26149de565b61010080516001600160a01b039283169081905261016b60205290516040902054909116156106d95780610100515261016b60205260ff60036040610100512001541681610100515261016b602052611c556004600360406101005120016148c1565b611c6260405180926145a0565b5f51602061552a5f395f51905f526040826004602086950152a27ff017c0de579727a3cd3ee18077ee8b4c43bf21892985952d1d5a0d52f983502d6101005161010051a26101005180f35b3461037157610100513660031901126103715760206040517fa49807205ce4d355092ef5a8a18f56e8913cf4a201fbe287825b095693c217758152f35b34610371576101005136600319011261037157602061016254604051908152f35b3461037157602036600319011261037157611d24614574565b611d2c6148fb565b6001600160a01b031680156105d457806001600160601b0360a01b61016754161761016755807feb9bbe914abace293599ca26955b6eff6d0ace7762213545bc79870727f2b1cf6101005161010051a36101005180f35b3461037157602036600319011261037157611d9c614574565b611da46148fb565b6001600160a01b031680156105d45761016980546001600160a01b031981168317909155610100516001600160a01b03909116907fad1f2d5f50724d4bfb331c3c4462b23b7371ce1c131a9008b8e85deeae84e4f89080a36101005180f35b34610371576101005136600319011261037157610166546040516001600160a01b039091168152602090f35b34610371576101005136600319011261037157602060ff60fb54166040519015158152f35b3461037157602036600319011261037157611e6d614574565b611e756148fb565b6001600160a01b031680156105d45761016580546001600160a01b031981168317909155610100516001600160a01b03909116907ff36cf3b7f3187ed5217f19ea5137ed68a98983b4d678c78eb886fc378d2c13cf9080a36101005180f35b3461037157602036600319011261037157611eed614574565b611ef56148fb565b61010080516001600160a01b038381169182905261016b6020529151604090205490929116156106d95781610100515261016b60205260ff6003604061010051200154166006811015611f9857600503611f8357611f5290614bdf565b7f400f595b86d2e2e76dd36a8d40858367fed8139b673a55475da794ed239c08346101005161010051a26101005180f35b630c0d630360e21b6101005152600461010051fd5b634e487b7160e01b61010051526021600452602461010051fd5b346103715761010051366003190112610371577f00000000000000000000000000000000000000000000000000000000000000006001600160a01b0316300361200c5760206040515f51602061556a5f395f51905f528152f35b60405162461bcd60e51b815260206004820152603860248201527f555550535570677261646561626c653a206d757374206e6f742062652063616c60448201527f6c6564207468726f7567682064656c656761746563616c6c00000000000000006064820152608490fd5b60403660031901126104a7576004356001600160401b0381116104a7576120a2903690600401614655565b906024356001600160401b0381116104a7576120c2903690600401614655565b906120cb614c33565b6120d3614c8b565b61015f54928334106131805760208186810103126104a75780356001600160401b0381116104a7578101946101e08682840103126104a757604051956101e087018781106001600160401b038211176132aa5760405280356001600160401b0381116104a7576121489083850190830161483c565b875260208101356001600160401b0381116104a75761216c9083850190830161483c565b602088015260408101356040880152606081013560608801526080810135608088015260a081013560a088015260c081013560c088015260e081013560018060a01b03811681036104a75760e08801526101008101356101008801526101208101356101208801526101408101356101408801526101608101356101608801526101808101356101808801526101a08101356101a08801526101c0810135906001600160401b0382116104a757828401601f8383010112156104a757818101356122358161485a565b9261224360405194856145e3565b818452602084019285870160208460071b8484010101116104a75780820160200193915b60208460071b82840101018510613252578b8b6122df6122d78d6122d18e8e8e8e6101c08a01526122c66034602061016a549360405194818692848401988937820190838201523060601b6040820152030160148101845201826145e3565b51902092369161461f565b90615041565b919091615076565b6001600160a01b03165f9081527f1be1477c25f25b47208dd2fabd547c2eb307ff280ce07fdd3b9014832cf3402b602052604090205460ff161561324357610100820151610e10810180911161322f574211613220576101208201515f5261016d60205260ff60405f205416613211576060820151604083015110613202576060820151156132025760608201516127106123846040850151610160860151906146e6565b041161320257612706610160830151116131f357805f915f60808501519360a0860151945f9361018088015190816131e0575b50506101608701518061318e575b50843410613180576101208701515f5261016d60205260405f2060ff198154166001179055600160a01b60019003610165541695875196602089015160408a0151986101008b0151996101408c01516040519b8c9485946328960ead60e21b86526004860160a0905260a4860161243b91614890565b85810360031901602487015261245091614890565b9260448501526064840152608483015203815a6020945f91f196871561310f575f9761315a575b50610166546040516342f34a5b60e11b81526001600160a01b0389811660048301529093929160209185916024918391165afa92831561310f575f93613129575b506001600160a01b0383161561311a576001600160a01b0388163b156104a7576040516340c3fa8b60e11b81526001600160a01b0384811660048301529091905f908390602490829084908e165af191821561310f576004926130fa575b5061252a60808b015160a08c0151906146e6565b6125388660608d01516148b4565b9060405194612546866145ad565b8552602085019283526040850190815260608501918252608085019288845260018060a01b038c16610100515261016c60205260406101005120955186555160018601555160028501555160038401555191015560018060a01b0360e08801511690600360c089015192604051906125bd826145ad565b8152602081019342855260408201908152606082019460018652608083019460018060a01b0316855260018060a01b038b16610100515261016b602052604061010051209260018060a01b039051166001600160601b0360a01b8454161783555160018301555160028201550191516006811015611f985761263f90836148c1565b518154610100600160a81b03191660089190911b610100600160a81b03161790556001600160a01b0385163b15610371576040516311c67ed560e31b8152600260048201526101005181602481836001600160a01b038b165af180156104b3576130df575b50610167546001600160a01b03168061307f575b508061288d575b50506101808401516127db575b610168546126e391906001600160a01b0316614d69565b6101685461015f546126fd916001600160a01b0316614d69565b8034116127a4575b5060209160018060a01b0360e082015116907f56d4db12e38ba8a34e42c620325e4de85f5ae96ccfd125d01498d801659b81e181518583015161276f61012060408601519501519161276260405194608086526080860190614890565b908482038a860152614890565b604083019490945260608201526001600160a01b0385169281900390a3600161012d556040516001600160a01b039091168152f35b6127ae90346148b4565b6101005181156127d2575b61010051918291829182913390f1156104b35782612705565b506108fc6127b9565b610169546001600160a01b03168015612878576101808501516101005191811561286e575b6101005192839283928392f1156104b3576126e39060018060a01b0360e0860151166101808601516101a087015160405191825260208201527f2bde942ed78f9e1081375810d2aa3bfe43ec08b083f750914542c4bf2fe936c7604060018060a01b03881692a390506126cc565b6108fc9250612800565b6309acb08560e31b6101005152600461010051fd5b926101c0869395929601515115158061306a575b1561303f5760e08301516101608401516040850151610140526101c0850151610180526101005190979096879690926001600160a01b0316875b61018051518a10156129d8576128f48a61018051614d12565b51511561089457606061290a8b61018051614d12565b510151612916816148d9565b61291f816148d9565b6129475761293e6001916129368c61018051614d12565b515190614717565b995b01986128db565b989761295a906129368a61018051614d12565b976002606061296c8361018051614d12565b510151612978816148d9565b612981816148d9565b1461298f575b600190612940565b604061299e8261018051614d12565b510151156129c35760406129b58261018051614d12565b510151610164541115612987575b633aca5b0d60e21b6101005152600461010051fd5b92959850929598969093966129ed8383614717565b1161302a576127109182612a07612a1493610140516146e6565b0460c052610140516146e6565b0490612a228260c051614717565b831061179d57612a3882610fe060c051866148b4565b9180612f8d575b5060c051612ad1575b5080612aae575b505b60e0860151610160870151604080519384526020840194909452928201929092526001600160a01b03918216918516907fa31a38e6668cb1ffb657385831d85ebd1fb88585e957850eb86a00017fb9c2ce90606090a384806126bf565b60e0870151612acb91906001600160a01b03908116908816614ccf565b86612a4f565b95939161018095939195515195612ae78761485a565b96612af560405198896145e3565b808852612b04601f199161485a565b01610100515b818110612f52575050610100805160e08190526001600160a01b038816905261016b602052516040908190209051612b41816145ad565b81546001600160a01b0316815260018201546020820152600282015460408201908152600390920154608090612b7d60ff8216606085016146da565b60081c6001600160a01b03169101525161012081905215612f48575b5f1960a052610100515b6101805151811015612bea57806060612bc160019361018051614d12565b510151612bcd816148d9565b612bd6816148d9565b612be1575b01612ba3565b8060a052612bdb565b509091929394959661010051610160525b6101805151610160511015612d2e57610100516080526060612c236101605161018051614d12565b510151612c2f816148d9565b612c38816148d9565b612cd157610100516080525b6040612c566101605161018051614d12565b5101516060612c6b6101605161018051614d12565b510151612c77816148d9565b60405191612c84836145c8565b60805183526101205160208401526040830152612ca0816148d9565b6060820152612cb2610160518a614d12565b52612cc06101605189614d12565b506001610160510161016052612bfb565b60a0516101605103612cf357612ceb60e05160c0516148b4565b608052612c44565b612710612d14612d096101605161018051614d12565b5151610140516146e6565b04608052612d2660805160e051614717565b60e052612c44565b6101675460405163095ea7b360e01b815260c0516001600160a01b0392831660048301526024820152610100519899979896979596949593949293929091602091839160449183918e165af180156104b357612f2b575b5061016754604051630dc5283b60e31b81526001600160a01b038a811660048301526024820185905260606044830152835160648301819052610100519293608485019385939091169160208701915b818110612ee65750505081806101005194039161010051905af180156104b357612e3e575b50516040519060c051825260208201527f1fa0b22f78385180668c3daa666fbb365854697bc4033e144adc37f12aa88dfa604060018060a01b038a1692a387612a48565b3d8061010051833e612e5081836145e3565b8101602082820312610371578151906001600160401b0382116103715780601f838501011215610371578183015191612e888361485a565b93612e9660405195866145e3565b838552602085019260208560051b8484010101116103715780820160200192915b60208560051b82840101018410612ed2575050505050612dfa565b602080809486518152019401939250612eb7565b9194600191939450608060209160608851805183528481015185840152604081015160408401520151612f18816148d9565b6060820152019501910191859392612dd5565b612f439060203d60201161127b5761126e81836145e3565b612d85565b4261012052612b99565b602090604051612f61816145c8565b610100518152610100518382015261010051604082015261010051606082015282828c01015201612b0a565b6001600160a01b0388163b1561037157604051630852cd8d60e31b8152600481018290526101005181602481836001600160a01b038e165af180156104b35761300f575b506040519081526001600160a01b038816907fbc97d43682d62b5fa04d7c8c66fb5d69e4ad8e7957df1cfba0fef609b35e0e1c90602090a288612a3f565b6101005161301c916145e3565b610100516103715789612fd1565b632aa519b160e21b6101005152600461010051fd5b60e083015192959194909390926130659082906001600160a01b03908116908816614ccf565b612a51565b50610167546001600160a01b031615156128a1565b6001600160a01b0386163b1561037157604051637499156960e01b815260048101919091526101005181602481836001600160a01b038b165af180156104b357156126b857610100516130d1916145e3565b6101005161037157866126b8565b610100516130ec916145e3565b6101005161037157866126a4565b5f613104916145e3565b5f610100528a612516565b6040513d5f823e3d90fd5b630793df6360e21b5f5260045ffd5b61314c91935060203d602011613153575b61314481836145e3565b810190614871565b91896124b8565b503d61313a565b6024929197506131789060203d6020116131535761314481836145e3565b969091612477565b62976f7560e21b5f5260045ffd5b93505050506131ae9192506040840151608085015160a086015191614a99565b939290926131d98392916131d36127106131cb61016054886146e6565b048096614717565b90614717565b93876123c5565b6131eb929650614717565b9387806123b7565b630da0c9f960e31b5f5260045ffd5b63b3f1dd7960e01b5f5260045ffd5b6329af1d3160e21b5f5260045ffd5b637f780e6960e11b5f5260045ffd5b634e487b7160e01b5f52601160045260245ffd5b632057875960e21b5f5260045ffd5b608085888a0103126104a75760405161326a816145c8565b853581526020860135602082015260408601356040820152606086013560038110156104a757602094828692606060809501528152019501949250612267565b634e487b7160e01b5f52604160045260245ffd5b60403660031901126104a7576132d2614574565b6024356001600160401b0381116104a757366023820112156104a75761330290369060248160040135910161461f565b6133597f00000000000000000000000000000000000000000000000000000000000000006001600160a01b031661333b3082141561477a565b5f51602061556a5f395f51905f52546001600160a01b0316146147db565b6133616148fb565b7f4910fdfa16fed3260ed0e7147f7cc6da11a60208b5b9406d12a635614ffd91435460ff1615613395575061001b90614faa565b6040516352d1902d60e01b81526001600160a01b03831690602081600481855afa5f9181613535575b5061341f5760405162461bcd60e51b815260206004820152602e60248201527f45524331393637557067726164653a206e657720696d706c656d656e7461746960448201526d6f6e206973206e6f74205555505360901b6064820152608490fd5b5f51602061556a5f395f51905f52036134de5761343b83614faa565b7fbc7cd75a20ee27fd9adebab32041f755214dbc6bffa90cc0225b39da2e5c2d3b5f80a28051158015906134d6575b61347057005b61001b915f80604051936134856060866145e3565b602785527f416464726573733a206c6f772d6c6576656c2064656c65676174652063616c6c6020860152660819985a5b195960ca1b6040860152602081519101845af46134d0614d3a565b91615470565b50600161346a565b60405162461bcd60e51b815260206004820152602960248201527f45524331393637557067726164653a20756e737570706f727465642070726f786044820152681a58589b195555525160ba1b6064820152608490fd5b9091506020813d602011613561575b81613551602093836145e3565b810103126104a7575190856133be565b3d9150613544565b346104a7575f3660031901126104a757610167546040516001600160a01b039091168152602090f35b346104a7575f3660031901126104a7576135aa6148fb565b60fb5460ff8116156135e95760ff191660fb557f5db9ee0a495bf2e6ff9c91a7834c1ba4fdd244a5e8aa4e537bd38aeae4b073aa6020604051338152a1005b60405162461bcd60e51b815260206004820152601460248201527314185d5cd8589b194e881b9bdd081c185d5cd95960621b6044820152606490fd5b346104a75760403660031901126104a75761363e614574565b60018060a01b0361016654169060018060a01b03165f5261016c602052604061368d60e4825f2061016154948451958694859363a2da90bf60e01b855260243560048601526024850190614682565b60c48301525afa801561310f575f905f906136b3575b6040809350519182526020820152f35b50506040813d6040116136e5575b816136ce604093836145e3565b810103126104a757806020604092519101516136a3565b3d91506136c1565b346104a75760203660031901126104a757613706614574565b61370e6149de565b6001600160a01b038181165f81815261016b6020526040902054909291161561379357815f5261016b60205260ff600360405f2001541660068110156106c5576004036137845761375e90614bdf565b7ff38578ed892ce2ce655ca8ae03c73464ad74915a1331a9b4085e637534daeedf5f80a2005b63471138a760e01b5f5260045ffd5b6309422c6560e41b5f5260045ffd5b346104a75760203660031901126104a7576137bb614574565b6137f47f00000000000000000000000000000000000000000000000000000000000000006001600160a01b031661333b3082141561477a565b6137fc6148fb565b60405190602061380c81846145e3565b5f8352808301601f1982013682377f4910fdfa16fed3260ed0e7147f7cc6da11a60208b5b9406d12a635614ffd91435460ff161561385057505061001b9150614faa565b6040516352d1902d60e01b81529192916001600160a01b038316908481600481855afa5f91816139e6575b506138dc5760405162461bcd60e51b815260048101869052602e60248201527f45524331393637557067726164653a206e657720696d706c656d656e7461746960448201526d6f6e206973206e6f74205555505360901b6064820152608490fd5b5f51602061556a5f395f51905f520361398f576138f883614faa565b7fbc7cd75a20ee27fd9adebab32041f755214dbc6bffa90cc0225b39da2e5c2d3b5f80a2835115801590613988575b61392d57005b5f809161001b957f416464726573733a206c6f772d6c6576656c2064656c65676174652063616c6c604051966139646060896145e3565b60278852870152660819985a5b195960ca1b60408701525190845af46134d0614d3a565b505f613927565b60405162461bcd60e51b815260048101859052602960248201527f45524331393637557067726164653a20756e737570706f727465642070726f786044820152681a58589b195555525160ba1b6064820152608490fd5b9091508581813d8311613a0e575b6139fe81836145e3565b810103126104a75751908761387b565b503d6139f4565b346104a75760403660031901126104a757613a2e61458a565b336001600160a01b03821603613a4a5761001b90600435614b5e565b60405162461bcd60e51b815260206004820152602f60248201527f416363657373436f6e74726f6c3a2063616e206f6e6c792072656e6f756e636560448201526e103937b632b9903337b91039b2b63360891b6064820152608490fd5b346104a75760e03660031901126104a757613ac0614574565b613ac861458a565b6044356001600160a01b038116908190036104a7576064356001600160a01b038116908190036104a7576084356001600160a01b038116908190036104a75760a4356001600160a01b03811692908390036104a75760c4356001600160a01b03811695908690036104a7575f549660ff8860081c161597888099614021575b801561400a575b15613fae5760ff1981166001175f5588613f9d575b50613bb160ff5f5460081c16613b7881614afe565b613b8181614afe565b613b8a81614afe565b60ff1960fb541660fb55613b9d81614afe565b613ba681614afe565b600161012d55614afe565b4661016a5560018060a01b03166001600160601b0360a01b6101655416176101655560018060a01b03166001600160601b0360a01b610166541617610166556001600160601b0360a01b610168541617610168556001600160601b0360a01b610169541617610169556001600160601b0360a01b61016e54161761016e555f805260c960205260405f20825f5260205260ff60405f20541615613f4c575b5f8281527f56eafcfe4e056e5ee1febf92b17728968883505f0e8dc799e4f43119d826ca85602052604090205460ff1615613ed9575b5f8181527f1be1477c25f25b47208dd2fabd547c2eb307ff280ce07fdd3b9014832cf3402b602052604090205460ff1615613e66575b505f8181527fcf53200a22df19dd97d52bc7b2624eb2ea0d32d22ad57fa7b1caed53ad9423c3602052604090205460ff1615613e06575b5f8181527f69740cd0ab091be8193e004660c49ef128fdf47ef95c5cc8c747e37ac0379df8602052604090205460ff1615613d93575b5066b1a2bc2ec5000061015f5561012c610160556064610161556102266101625560fa610163556201518061016455613d5d57005b61ff00195f54165f557f7f26b83ff96e1f2b6a682f133852f6798a09c465da95921460cefb3847402498602060405160018152a1005b5f8181527f69740cd0ab091be8193e004660c49ef128fdf47ef95c5cc8c747e37ac0379df860205260408120805460ff191660011790553391907f65d7a28e3265b37a6474929f336521b332c1681b933f6cb9f3376673440d862a905f51602061550a5f395f51905f529080a481613d28565b5f8181527fcf53200a22df19dd97d52bc7b2624eb2ea0d32d22ad57fa7b1caed53ad9423c360205260408120805460ff19166001179055339082905f51602061554a5f395f51905f52905f51602061550a5f395f51905f529080a4613cf2565b5f8181527f1be1477c25f25b47208dd2fabd547c2eb307ff280ce07fdd3b9014832cf3402b60205260408120805460ff191660011790553391907fe2f4eaae4a9751e85a3e4a7b9587827a877f29914755229b07a7b2da98285f70905f51602061550a5f395f51905f529080a482613cbb565b5f8281527f56eafcfe4e056e5ee1febf92b17728968883505f0e8dc799e4f43119d826ca8560205260408120805460ff19166001179055339083907fa49807205ce4d355092ef5a8a18f56e8913cf4a201fbe287825b095693c21775905f51602061550a5f395f51905f529080a4613c85565b5f8281527f81fe90a866a48a634a12852c1be675b683a22307409932a7443b8029347be75660205260408120805460ff19166001179055339083905f51602061550a5f395f51905f528180a4613c4f565b61ffff1916610101175f5588613b63565b60405162461bcd60e51b815260206004820152602e60248201527f496e697469616c697a61626c653a20636f6e747261637420697320616c72656160448201526d191e481a5b9a5d1a585b1a5e995960921b6064820152608490fd5b50303b158015613b4e5750600160ff821614613b4e565b50600160ff821610613b47565b346104a75760203660031901126104a7576004355f5261016d602052602060ff60405f2054166040519015158152f35b346104a75760803660031901126104a7576040614085606435604435602435600435614724565b82519182526020820152f35b346104a75760403660031901126104a7576004356140ad61458a565b906140c7610769825f5260c9602052600160405f20015490565b805f5260c960205260405f2060018060a01b0383165f5260205260ff60405f205416156140f057005b5f81815260c9602090815260408083206001600160a01b0395909516808452949091528120805460ff19166001179055339291905f51602061550a5f395f51905f529080a4005b346104a7575f3660031901126104a757610168546040516001600160a01b039091168152602090f35b346104a75760203660031901126104a757614179614574565b6141816148fb565b6001600160a01b031680156141d45761016e80546001600160a01b0319811683179091556001600160a01b03167f6ffa662411e37f7389256c3ff1fd82a328ebbca85db867d18db32bca1d9b126f5f80a3005b63d92e233d60e01b5f5260045ffd5b346104a75760203660031901126104a757602061420e6004355f5260c9602052600160405f20015490565b604051908152f35b346104a7575f3660031901126104a7576020604051610e108152f35b346104a7575f3660031901126104a7576020604051678ac7230489e800008152f35b346104a75760203660031901126104a75761426d614574565b6142756146b0565b5060018060a01b03165f5261016b60205260a060405f2060405190614299826145ad565b600180841b03815416825261430f60018201546020840190815260036002840154936040860194855201549260608501916142d760ff8616846146da565b6080860194600180891b039060081c16855260405195600180891b0390511686525160208601525160408501525160608401906145a0565b515f196001841b01166080820152f35b346104a75760403660031901126104a757614338614574565b60018060a01b0361016654169060018060a01b03165f5261016c602052602061438460c460405f206040519485938492634f4fd49360e01b845260243560048501526024840190614682565b5afa801561310f575f9061439e575b602090604051908152f35b506020813d6020116143c9575b816143b8602093836145e3565b810103126104a75760209051614393565b3d91506143ab565b346104a7575f3660031901126104a757602061016354604051908152f35b346104a75760403660031901126104a75760043560243561440e6148fb565b61044c82118015614469575b61445a57816040917f26b4cd55c49e46e7d5d26cac1b0ce72e916392037e7adb215a41da0cad0d1e0f9361016255806101635582519182526020820152a1005b63661067b560e01b5f5260045ffd5b506101f4811161441a565b346104a75760203660031901126104a7576004356144906148fb565b60c8811161445a576020817f46b6c881f7b211aac2ebbcb6ef27aad574be4b485ce610cba8a4b7c9c97f9f619261016155604051908152a1005b346104a75760203660031901126104a7576004356144e66148fb565b610258811161445a576020817fa44b683584cdbeea626bc8cd0221be4ad9f55cace7f60e150e4f0076729bd3f19261016055604051908152a1005b346104a75760203660031901126104a7576004359063ffffffff60e01b82168092036104a757602091637965db0b60e01b8114908115614563575b5015158152f35b6301ffc9a760e01b1490508361455c565b600435906001600160a01b03821682036104a757565b602435906001600160a01b03821682036104a757565b9060068210156106c55752565b60a081019081106001600160401b038211176132aa57604052565b608081019081106001600160401b038211176132aa57604052565b90601f801991011681019081106001600160401b038211176132aa57604052565b6001600160401b0381116132aa57601f01601f191660200190565b92919261462b82614604565b9161463960405193846145e3565b8294818452818301116104a7578281602093845f960137010152565b9181601f840112156104a7578235916001600160401b0383116104a757602083818601950101116104a757565b6004608091805484526001810154602085015260028101546040850152600381015460608501520154910152565b604051906146bd826145ad565b5f6080838281528260208201528260408201528260608201520152565b60068210156106c55752565b8181029291811591840414171561322f57565b8115614703570490565b634e487b7160e01b5f52601260045260245ffd5b9190820180921161322f57565b92919082156147705761270683116147615761473f93614a99565b5050905061475e61271061475661016054846146e6565b048092614717565b91565b630e52390960e41b5f5260045ffd5b505050505f905f90565b1561478157565b60405162461bcd60e51b815260206004820152602c60248201527f46756e6374696f6e206d7573742062652063616c6c6564207468726f7567682060448201526b19195b1959d85d1958d85b1b60a21b6064820152608490fd5b156147e257565b60405162461bcd60e51b815260206004820152602c60248201527f46756e6374696f6e206d7573742062652063616c6c6564207468726f7567682060448201526b6163746976652070726f787960a01b6064820152608490fd5b9080601f830112156104a7578160206148579335910161461f565b90565b6001600160401b0381116132aa5760051b60200190565b908160209103126104a757516001600160a01b03811681036104a75790565b805180835260209291819084018484015e5f828201840152601f01601f1916010190565b9190820391821161322f57565b9060068110156106c55760ff80198354169116179055565b600311156106c557565b908160209103126104a7575180151581036104a75790565b335f9081527f56eafcfe4e056e5ee1febf92b17728968883505f0e8dc799e4f43119d826ca85602052604090205460ff161561493357565b6113ce60206113ae60116149463361526d565b6037846149727fa49807205ce4d355092ef5a8a18f56e8913cf4a201fbe287825b095693c21775615353565b60405196879476020b1b1b2b9b9a1b7b73a3937b61d1030b1b1b7bab73a1604d1b828701528051918291018587015e8401907001034b99036b4b9b9b4b733903937b6329607d1b84830152805192839101604883015e01015f838201520301601f1981018352826145e3565b335f9081527f69740cd0ab091be8193e004660c49ef128fdf47ef95c5cc8c747e37ac0379df8602052604090205460ff1615614a1657565b6113ce60206113ae6011614a293361526d565b6037846149727f65d7a28e3265b37a6474929f336521b332c1681b933f6cb9f3376673440d862a615353565b5f81815260c96020908152604080832033845290915290205460ff1615614a795750565b60206113ae60116113ce93603784614972614a933361526d565b93615353565b92909281151580614af3575b614ae55761271091614ab6916146e6565b0492614ae0614ad9614ad286614acc86886146e6565b956148b4565b80946146f9565b93846148b4565b929190565b620c698760e71b5f5260045ffd5b506127068211614aa5565b15614b0557565b60405162461bcd60e51b815260206004820152602b60248201527f496e697469616c697a61626c653a20636f6e7472616374206973206e6f74206960448201526a6e697469616c697a696e6760a81b6064820152608490fd5b805f5260c960205260405f2060018060a01b0383165f5260205260ff60405f205416614b88575050565b5f81815260c9602090815260408083206001600160a01b0395909516808452949091528120805460ff19169055339291907ff6391f5c32d9c69d2a47ea670b442974b53935d1edc7fd64eb21e047a839171b9080a4565b6001600160a01b03165f81815261016b60205260409020600301805460ff1690614c0b906001906148c1565b614c1860405180926145a0565b604081600160205f51602061552a5f395f51905f52940152a2565b600261012d5414614c4657600261012d55565b60405162461bcd60e51b815260206004820152601f60248201527f5265656e7472616e637947756172643a207265656e7472616e742063616c6c006044820152606490fd5b60ff60fb5416614c9757565b60405162461bcd60e51b815260206004820152601060248201526f14185d5cd8589b194e881c185d5cd95960821b6044820152606490fd5b60405163a9059cbb60e01b60208201526001600160a01b03929092166024830152604480830193909352918152614d1091614d0b6064836145e3565b61517a565b565b8051821015614d265760209160051b010190565b634e487b7160e01b5f52603260045260245ffd5b3d15614d64573d90614d4b82614604565b91614d5960405193846145e3565b82523d5f602084013e565b606090565b8115614dac576001600160a01b03811615614eac575b803b63ffffffff1615614e52576001600160a01b03165f80808085855af1614da5614d3a565b5015614db0575b5050565b5f8080808560018060a01b0361016854165af1614dcb614d3a565b5015614e0d57610168546040519283526001600160a01b0316917f6afa8f4931d4d54be4c8ec2d5ea35bc333285b37685b953b663dae4ee33dc62490602090a3565b60405162461bcd60e51b815260206004820152601b60248201527f424e425f53454e445f4641494c45445f544f5f46414c4c4241434b00000000006044820152606490fd5b5f918291829182916001600160a01b03165af1614e6d614d3a565b5015614e7557565b60405162461bcd60e51b815260206004820152600f60248201526e10939097d4d1539117d19052531151608a1b6044820152606490fd5b50610168546001600160a01b031680614d7f5760405162461bcd60e51b815260206004820152601d60248201527f506c6174666f726d20666565207265636569766572206e6f74207365740000006044820152606490fd5b60018060a01b03165f5261016b60205260405f20604051614f24816145ad565b81546001600160a01b0316815260018201546020820152600282015460408201908152600390920154606082019190608090614f6360ff8216856146da565b60081c6001600160a01b03169101525160068110156106c5575f1901614f9b57514210614f8c57565b63fb07a0e960e01b5f5260045ffd5b637e68d99760e01b5f5260045ffd5b803b15614fe65760018060a01b03166001600160601b0360a01b5f51602061556a5f395f51905f525416175f51602061556a5f395f51905f5255565b60405162461bcd60e51b815260206004820152602d60248201527f455243313936373a206e657720696d706c656d656e746174696f6e206973206e60448201526c1bdd08184818dbdb9d1c9858dd609a1b6064820152608490fd5b9060418151145f1461506d5761506991602082015190606060408401519301515f1a906153f5565b9091565b50505f90600290565b60058110156106c557806150875750565b600181036150d45760405162461bcd60e51b815260206004820152601860248201527f45434453413a20696e76616c6964207369676e617475726500000000000000006044820152606490fd5b600281036151215760405162461bcd60e51b815260206004820152601f60248201527f45434453413a20696e76616c6964207369676e6174757265206c656e677468006044820152606490fd5b60031461512a57565b60405162461bcd60e51b815260206004820152602260248201527f45434453413a20696e76616c6964207369676e6174757265202773272076616c604482015261756560f01b6064820152608490fd5b906151d49160018060a01b03165f80604051936151986040866145e3565b602085527f5361666545524332303a206c6f772d6c6576656c2063616c6c206661696c6564602086015260208151910182855af16134d0614d3a565b8051908115918215615242575b5050156151ea57565b60405162461bcd60e51b815260206004820152602a60248201527f5361666545524332303a204552433230206f7065726174696f6e20646964206e6044820152691bdd081cdd58d8d9595960b21b6064820152608490fd5b61525592506020809183010191016148e3565b5f806151e1565b908151811015614d26570160200190565b615277602a614604565b9061528560405192836145e3565b602a8252615293602a614604565b6020830190601f1901368237825115614d265760309053815160011015614d26576078602183015360295b6001811161531257506152ce5790565b606460405162461bcd60e51b815260206004820152602060248201527f537472696e67733a20686578206c656e67746820696e73756666696369656e746044820152fd5b90600f81166010811015614d26576f181899199a1a9b1b9c1cb0b131b232b360811b901a615340838561525c565b5360041c90801561322f575f19016152be565b61535d6042614604565b9061536b60405192836145e3565b604282526153796042614604565b6020830190601f1901368237825115614d265760309053815160011015614d26576078602183015360415b600181116153b457506152ce5790565b90600f81166010811015614d26576f181899199a1a9b1b9c1cb0b131b232b360811b901a6153e2838561525c565b5360041c90801561322f575f19016153a4565b7f7fffffffffffffffffffffffffffffff5d576e7357a4501ddfe92f46681b20a08411615465576020935f9360ff60809460405194855216868401526040830152606082015282805260015afa1561310f575f516001600160a01b0381161561545d57905f90565b505f90600190565b505050505f90600390565b919290156154d25750815115615484575090565b3b1561548d5790565b60405162461bcd60e51b815260206004820152601d60248201527f416464726573733a2063616c6c20746f206e6f6e2d636f6e74726163740000006044820152606490fd5b8251909150156154e55750805190602001fd5b60405162461bcd60e51b8152602060048201529081906113ce90602483019061489056fe2f8788117e7eff1d82e926ec794901d17c78024a50270940304540a733656f0de43975e4ad911fdb47219077237d46e1f425b6a88406ac603eb0f1b6331f54a7fc425f2263d0df187444b70e47283d622c70181c5baebb1306a01edba1ce184c360894a13ba1a3210667c828492db98dca3e2076cc3735a920a3ca505d382bbca26469706673582212206b0d025e227539eacaccfd90a63f3f4be75a581ac1217e5e1c6e40b05bdfde3264736f6c634300081d0033","linkReferences":{}},"methodIdentifiers":{"ADMIN_ROLE()":"75b238fc","CHAIN_ID()":"85e1f4d0","DEFAULT_ADMIN_ROLE()":"a217fddf","DEPLOYER_ROLE()":"ecd00261","MAX_INITIAL_BUY_PERCENTAGE()":"83b4e74d","MIN_LIQUIDITY()":"21b77d63","PAUSER_ROLE()":"e63ab1e9","REQUEST_EXPIRY()":"22f195b5","SIGNER_ROLE()":"a1ebf35d","blacklistToken(address)":"e1254559","bondingCurve(address)":"d0c58e48","buy(address,uint256,uint256)":"a59ac6dd","calculateBuyAmount(address,uint256)":"f2f2c5c4","calculateBuyAmountWithFee(address,uint256)":"8e3388dc","calculateInitialBuyBNB(uint256,uint256,uint256,uint256)":"337eef27","calculateSellReturn(address,uint256)":"1c8b271a","calculateSellReturnWithFee(address,uint256)":"3ec3908c","createToken(bytes,bytes)":"519ebb10","creationFee()":"dce0b4e4","emergencyWithdraw(address,uint256)":"95ccea67","factory()":"c45a0155","getBondingCurve(address)":"83db2a21","getRoleAdmin(bytes32)":"248a9ca3","getTokenInfo(address)":"1f69565f","graduateFeeReceiver()":"ae9af2d0","graduateToken(address)":"97f548f7","graduationCreatorFeeRate()":"18b07423","graduationPlatformFeeRate()":"715ddce4","grantRole(bytes32,address)":"2f2ff15d","hasRole(bytes32,address)":"91d14854","helper()":"63b0e66a","initialize(address,address,address,address,address,address,address)":"35876476","marginReceiver()":"ee28282c","minLockTime()":"a60ff766","pause()":"8456cb59","pauseToken(address)":"7c41ad2c","paused()":"5c975abb","platformFeeReceiver()":"2d656ad7","preBuyFeeRate()":"c108a26e","proxiableUUID()":"52d1902d","removeFromBlacklist(address)":"537df3b6","renounceRole(bytes32,address)":"36568abe","revokeRole(bytes32,address)":"d547741f","sell(address,uint256,uint256,uint256)":"92cdbac5","setCreationFee(uint256)":"b7d86225","setFactory(address)":"5bb47808","setGraduateFeeReceiver(address)":"2d5d1467","setGraduationFeeRates(uint256,uint256)":"159f4b15","setHelper(address)":"986ccc7f","setMarginReceiver(address)":"644660a2","setMinLockTime(uint256)":"82e5d1bc","setPlatformFeeReceiver(address)":"e340977a","setPreBuyFeeRate(uint256)":"0c30571c","setTradingFeeRate(uint256)":"1091f67c","setVesting(address)":"6f6ff3bc","supportsInterface(bytes4)":"01ffc9a7","tokenInfo(address)":"f5dab711","tradingFeeRate()":"e01df1a8","unpause()":"3f4ba83a","unpauseToken(address)":"3b3bff0f","upgradeTo(address)":"3659cfe6","upgradeToAndCall(address,bytes)":"4f1ef286","usedRequestIds(bytes32)":"34985738","vesting()":"44c63eec"},"id":46}